{
  "_format": "hh-sol-artifact-1",
  "contractName": "Vesting",
  "sourceName": "contracts/Vesting.sol",
  "abi": [
    {
      "inputs": [
        {
          "internalType": "address",
          "name": "currency_",
          "type": "address"
        },
        {
          "internalType": "uint8",
          "name": "maxClaims_",
          "type": "uint8"
        },
        {
          "internalType": "address",
          "name": "newOwner",
          "type": "address"
        }
      ],
      "stateMutability": "nonpayable",
      "type": "constructor"
    },
    {
      "inputs": [
        {
          "internalType": "address",
          "name": "owner",
          "type": "address"
        }
      ],
      "name": "OwnableInvalidOwner",
      "type": "error"
    },
    {
      "inputs": [
        {
          "internalType": "address",
          "name": "account",
          "type": "address"
        }
      ],
      "name": "OwnableUnauthorizedAccount",
      "type": "error"
    },
    {
      "anonymous": false,
      "inputs": [
        {
          "indexed": false,
          "internalType": "uint256",
          "name": "intervalInSconds",
          "type": "uint256"
        }
      ],
      "name": "ChangeInterval",
      "type": "event"
    },
    {
      "anonymous": false,
      "inputs": [
        {
          "indexed": false,
          "internalType": "address",
          "name": "from",
          "type": "address"
        },
        {
          "indexed": false,
          "internalType": "uint256",
          "name": "amount",
          "type": "uint256"
        },
        {
          "indexed": false,
          "internalType": "uint256",
          "name": "count",
          "type": "uint256"
        }
      ],
      "name": "ClaimTokens",
      "type": "event"
    },
    {
      "anonymous": false,
      "inputs": [
        {
          "indexed": false,
          "internalType": "uint256",
          "name": "timeStamp",
          "type": "uint256"
        }
      ],
      "name": "InitializeVesting",
      "type": "event"
    },
    {
      "anonymous": false,
      "inputs": [
        {
          "indexed": true,
          "internalType": "address",
          "name": "previousOwner",
          "type": "address"
        },
        {
          "indexed": true,
          "internalType": "address",
          "name": "newOwner",
          "type": "address"
        }
      ],
      "name": "OwnershipTransferred",
      "type": "event"
    },
    {
      "anonymous": false,
      "inputs": [
        {
          "indexed": false,
          "internalType": "address",
          "name": "account",
          "type": "address"
        }
      ],
      "name": "RemoveAccounts",
      "type": "event"
    },
    {
      "anonymous": false,
      "inputs": [
        {
          "indexed": false,
          "internalType": "uint256",
          "name": "tokenAmount",
          "type": "uint256"
        },
        {
          "indexed": false,
          "internalType": "uint256",
          "name": "accountAmount",
          "type": "uint256"
        }
      ],
      "name": "ResgisterVesting",
      "type": "event"
    },
    {
      "anonymous": false,
      "inputs": [
        {
          "indexed": false,
          "internalType": "address",
          "name": "newCurrency",
          "type": "address"
        }
      ],
      "name": "SetCurrency",
      "type": "event"
    },
    {
      "inputs": [
        {
          "internalType": "uint256",
          "name": "intervalInSconds",
          "type": "uint256"
        }
      ],
      "name": "changeInterval",
      "outputs": [],
      "stateMutability": "nonpayable",
      "type": "function"
    },
    {
      "inputs": [],
      "name": "claimTokens",
      "outputs": [],
      "stateMutability": "nonpayable",
      "type": "function"
    },
    {
      "inputs": [],
      "name": "currency",
      "outputs": [
        {
          "internalType": "contract IERC20",
          "name": "",
          "type": "address"
        }
      ],
      "stateMutability": "view",
      "type": "function"
    },
    {
      "inputs": [],
      "name": "initializeVesting",
      "outputs": [],
      "stateMutability": "nonpayable",
      "type": "function"
    },
    {
      "inputs": [],
      "name": "interval",
      "outputs": [
        {
          "internalType": "uint256",
          "name": "",
          "type": "uint256"
        }
      ],
      "stateMutability": "view",
      "type": "function"
    },
    {
      "inputs": [],
      "name": "maxClaims",
      "outputs": [
        {
          "internalType": "uint8",
          "name": "",
          "type": "uint8"
        }
      ],
      "stateMutability": "view",
      "type": "function"
    },
    {
      "inputs": [],
      "name": "owner",
      "outputs": [
        {
          "internalType": "address",
          "name": "",
          "type": "address"
        }
      ],
      "stateMutability": "view",
      "type": "function"
    },
    {
      "inputs": [
        {
          "internalType": "address",
          "name": "account",
          "type": "address"
        }
      ],
      "name": "removeAccounts",
      "outputs": [],
      "stateMutability": "nonpayable",
      "type": "function"
    },
    {
      "inputs": [],
      "name": "renounceOwnership",
      "outputs": [],
      "stateMutability": "nonpayable",
      "type": "function"
    },
    {
      "inputs": [
        {
          "internalType": "address[]",
          "name": "accounts",
          "type": "address[]"
        },
        {
          "internalType": "uint256[]",
          "name": "amounts",
          "type": "uint256[]"
        }
      ],
      "name": "resgisterVesting",
      "outputs": [],
      "stateMutability": "nonpayable",
      "type": "function"
    },
    {
      "inputs": [
        {
          "internalType": "contract IERC20",
          "name": "currency_",
          "type": "address"
        }
      ],
      "name": "setCurrency",
      "outputs": [],
      "stateMutability": "nonpayable",
      "type": "function"
    },
    {
      "inputs": [],
      "name": "startVesting",
      "outputs": [
        {
          "internalType": "uint256",
          "name": "",
          "type": "uint256"
        }
      ],
      "stateMutability": "view",
      "type": "function"
    },
    {
      "inputs": [],
      "name": "stateVesting",
      "outputs": [
        {
          "internalType": "bool",
          "name": "",
          "type": "bool"
        }
      ],
      "stateMutability": "view",
      "type": "function"
    },
    {
      "inputs": [
        {
          "internalType": "address",
          "name": "",
          "type": "address"
        }
      ],
      "name": "totalAmounts",
      "outputs": [
        {
          "internalType": "uint256",
          "name": "",
          "type": "uint256"
        }
      ],
      "stateMutability": "view",
      "type": "function"
    },
    {
      "inputs": [
        {
          "internalType": "address",
          "name": "",
          "type": "address"
        }
      ],
      "name": "totalClaims",
      "outputs": [
        {
          "internalType": "uint256",
          "name": "",
          "type": "uint256"
        }
      ],
      "stateMutability": "view",
      "type": "function"
    },
    {
      "inputs": [],
      "name": "totalCurrency",
      "outputs": [
        {
          "internalType": "uint256",
          "name": "",
          "type": "uint256"
        }
      ],
      "stateMutability": "view",
      "type": "function"
    },
    {
      "inputs": [
        {
          "internalType": "address",
          "name": "newOwner",
          "type": "address"
        }
      ],
      "name": "transferOwnership",
      "outputs": [],
      "stateMutability": "nonpayable",
      "type": "function"
    }
  ],
  "bytecode": "0x608060405262278d006002553480156200001857600080fd5b5060405162001eaa38038062001eaa83398181016040528101906200003e919062000309565b80600073ffffffffffffffffffffffffffffffffffffffff168173ffffffffffffffffffffffffffffffffffffffff1603620000b45760006040517f1e4fbdf7000000000000000000000000000000000000000000000000000000008152600401620000ab919062000376565b60405180910390fd5b620000c5816200019d60201b60201c565b50600073ffffffffffffffffffffffffffffffffffffffff168373ffffffffffffffffffffffffffffffffffffffff160362000138576040517f08c379a00000000000000000000000000000000000000000000000000000000081526004016200012f90620003f4565b60405180910390fd5b82600460016101000a81548173ffffffffffffffffffffffffffffffffffffffff021916908373ffffffffffffffffffffffffffffffffffffffff16021790555081600460006101000a81548160ff021916908360ff16021790555050505062000416565b60008060009054906101000a900473ffffffffffffffffffffffffffffffffffffffff169050816000806101000a81548173ffffffffffffffffffffffffffffffffffffffff021916908373ffffffffffffffffffffffffffffffffffffffff1602179055508173ffffffffffffffffffffffffffffffffffffffff168173ffffffffffffffffffffffffffffffffffffffff167f8be0079c531659141344cd1fd0a4f28419497f9722a3daafe3b4186f6b6457e060405160405180910390a35050565b600080fd5b600073ffffffffffffffffffffffffffffffffffffffff82169050919050565b6000620002938262000266565b9050919050565b620002a58162000286565b8114620002b157600080fd5b50565b600081519050620002c5816200029a565b92915050565b600060ff82169050919050565b620002e381620002cb565b8114620002ef57600080fd5b50565b6000815190506200030381620002d8565b92915050565b60008060006060848603121562000325576200032462000261565b5b60006200033586828701620002b4565b93505060206200034886828701620002f2565b92505060406200035b86828701620002b4565b9150509250925092565b620003708162000286565b82525050565b60006020820190506200038d600083018462000365565b92915050565b600082825260208201905092915050565b7f4d757374206265206120746f6b656e2061646472657373000000000000000000600082015250565b6000620003dc60178362000393565b9150620003e982620003a4565b602082019050919050565b600060208201905081810360008301526200040f81620003cd565b9050919050565b611a8480620004266000396000f3fe608060405234801561001057600080fd5b506004361061010b5760003560e01c80638da5cb5b116100a2578063cf5380b411610071578063cf5380b414610258578063deb36e3214610276578063e5a6b10f14610294578063ef683a77146102b2578063f2fde38b146102d05761010b565b80638da5cb5b146101e4578063947a36fb14610202578063958e057614610220578063b05859141461023c5761010b565b80634054ed90116100de5780634054ed901461018457806348c54b9d146101b457806363c75607146101be578063715018a6146101da5761010b565b806317aed201146101105780631f2e4be81461011a57806320bf28a01461014a5780632f84c39114610168575b600080fd5b6101186102ec565b005b610134600480360381019061012f9190610f5f565b610481565b6040516101419190610fa5565b60405180910390f35b610152610499565b60405161015f9190610fdb565b60405180910390f35b610182600480360381019061017d9190611034565b6104ac565b005b61019e60048036038101906101999190610f5f565b6105a1565b6040516101ab9190610fa5565b60405180910390f35b6101bc6105b9565b005b6101d860048036038101906101d3919061108d565b610877565b005b6101e2610910565b005b6101ec610924565b6040516101f991906110c9565b60405180910390f35b61020a61094d565b6040516102179190610fa5565b60405180910390f35b61023a60048036038101906102359190610f5f565b610953565b005b61025660048036038101906102519190611300565b610a82565b005b610260610ccf565b60405161026d9190611394565b60405180910390f35b61027e610ce2565b60405161028b9190610fa5565b60405180910390f35b61029c610ce8565b6040516102a9919061140e565b60405180910390f35b6102ba610d0e565b6040516102c79190610fa5565b60405180910390f35b6102ea60048036038101906102e59190610f5f565b610d14565b005b6102f4610d9a565b600060149054906101000a900460ff1615610344576040517f08c379a000000000000000000000000000000000000000000000000000000000815260040161033b906114ac565b60405180910390fd5b600354600460019054906101000a900473ffffffffffffffffffffffffffffffffffffffff1673ffffffffffffffffffffffffffffffffffffffff166370a08231306040518263ffffffff1660e01b81526004016103a291906110c9565b602060405180830381865afa1580156103bf573d6000803e3d6000fd5b505050506040513d601f19601f820116820180604052508101906103e391906114e1565b1015610424576040517f08c379a000000000000000000000000000000000000000000000000000000000815260040161041b9061155a565b60405180910390fd5b6001600060146101000a81548160ff021916908315150217905550426001819055507fa4b9e70c67c7af339f5b08ae9fff32f1d5c79546bad59b5a5f1d0b911bce18e06001546040516104779190610fa5565b60405180910390a1565b60056020528060005260406000206000915090505481565b600060149054906101000a900460ff1681565b6104b4610d9a565b600060149054906101000a900460ff1615610504576040517f08c379a00000000000000000000000000000000000000000000000000000000081526004016104fb906114ac565b60405180910390fd5b80600460016101000a81548173ffffffffffffffffffffffffffffffffffffffff021916908373ffffffffffffffffffffffffffffffffffffffff1602179055507fabafa9c1e6fed9b333f964bb84ed729c36b3152a843ae96a671ebc95742de6e6600460019054906101000a900473ffffffffffffffffffffffffffffffffffffffff1660405161059691906110c9565b60405180910390a150565b60066020528060005260406000206000915090505481565b600060149054906101000a900460ff16610608576040517f08c379a00000000000000000000000000000000000000000000000000000000081526004016105ff906115c6565b60405180910390fd5b60003390506000600560008373ffffffffffffffffffffffffffffffffffffffff1673ffffffffffffffffffffffffffffffffffffffff1681526020019081526020016000205490506000600660008473ffffffffffffffffffffffffffffffffffffffff1673ffffffffffffffffffffffffffffffffffffffff16815260200190815260200160002060008154809291906106a390611615565b919050559050600082116106b657600080fd5b6001816106c3919061165d565b6002546106d09190611691565b6001546106dd919061165d565b42101561071f576040517f08c379a000000000000000000000000000000000000000000000000000000000815260040161071690611745565b60405180910390fd5b600460009054906101000a900460ff1660ff168110610773576040517f08c379a000000000000000000000000000000000000000000000000000000000815260040161076a906117b1565b60405180910390fd5b6000600460009054906101000a900460ff1660ff16836107939190611800565b9050600460019054906101000a900473ffffffffffffffffffffffffffffffffffffffff1673ffffffffffffffffffffffffffffffffffffffff1663a9059cbb85836040518363ffffffff1660e01b81526004016107f2929190611831565b6020604051808303816000875af1158015610811573d6000803e3d6000fd5b505050506040513d601f19601f820116820180604052508101906108359190611886565b507f5b647b01e17159c2bbd13f8fbeae19db9f87496617c7efbe0bf87bb1e684afca848284604051610869939291906118b3565b60405180910390a150505050565b61087f610d9a565b600060149054906101000a900460ff16156108cf576040517f08c379a00000000000000000000000000000000000000000000000000000000081526004016108c6906114ac565b60405180910390fd5b806002819055507f05313b1ca25e5025f9c9e99a4d062fccc014718ab09aeb448c96c4a54edc8994816040516109059190610fa5565b60405180910390a150565b610918610d9a565b6109226000610e21565b565b60008060009054906101000a900473ffffffffffffffffffffffffffffffffffffffff16905090565b60025481565b61095b610d9a565b600060149054906101000a900460ff16156109ab576040517f08c379a00000000000000000000000000000000000000000000000000000000081526004016109a2906114ac565b60405180910390fd5b600560008273ffffffffffffffffffffffffffffffffffffffff1673ffffffffffffffffffffffffffffffffffffffff16815260200190815260200160002054600360008282546109fc91906118ea565b925050819055506000600560008373ffffffffffffffffffffffffffffffffffffffff1673ffffffffffffffffffffffffffffffffffffffff168152602001908152602001600020819055507f7f1bdd49a36e1d06eb84104f61a057b1a09db773f2a9554478ff5246eb42fbc281604051610a7791906110c9565b60405180910390a150565b610a8a610d9a565b600060149054906101000a900460ff1615610ada576040517f08c379a0000000000000000000000000000000000000000000000000000000008152600401610ad1906114ac565b60405180910390fd5b60008251905081518114610b23576040517f08c379a0000000000000000000000000000000000000000000000000000000008152600401610b1a9061196a565b60405180910390fd5b6000805b82811015610c7557600073ffffffffffffffffffffffffffffffffffffffff16858281518110610b5a57610b5961198a565b5b602002602001015173ffffffffffffffffffffffffffffffffffffffff1603610bb8576040517f08c379a0000000000000000000000000000000000000000000000000000000008152600401610baf90611a05565b60405180910390fd5b838181518110610bcb57610bca61198a565b5b602002602001015182610bde919061165d565b9150838181518110610bf357610bf261198a565b5b602002602001015160056000878481518110610c1257610c1161198a565b5b602002602001015173ffffffffffffffffffffffffffffffffffffffff1673ffffffffffffffffffffffffffffffffffffffff1681526020019081526020016000206000828254610c63919061165d565b92505081905550806001019050610b27565b508060036000828254610c88919061165d565b925050819055507ff9f5aa2b1a6844aa3f745f61b3f5b09f166593ff501eda7160d84ed60a86120a818551604051610cc1929190611a25565b60405180910390a150505050565b600460009054906101000a900460ff1681565b60015481565b600460019054906101000a900473ffffffffffffffffffffffffffffffffffffffff1681565b60035481565b610d1c610d9a565b600073ffffffffffffffffffffffffffffffffffffffff168173ffffffffffffffffffffffffffffffffffffffff1603610d8e5760006040517f1e4fbdf7000000000000000000000000000000000000000000000000000000008152600401610d8591906110c9565b60405180910390fd5b610d9781610e21565b50565b610da2610ee5565b73ffffffffffffffffffffffffffffffffffffffff16610dc0610924565b73ffffffffffffffffffffffffffffffffffffffff1614610e1f57610de3610ee5565b6040517f118cdaa7000000000000000000000000000000000000000000000000000000008152600401610e1691906110c9565b60405180910390fd5b565b60008060009054906101000a900473ffffffffffffffffffffffffffffffffffffffff169050816000806101000a81548173ffffffffffffffffffffffffffffffffffffffff021916908373ffffffffffffffffffffffffffffffffffffffff1602179055508173ffffffffffffffffffffffffffffffffffffffff168173ffffffffffffffffffffffffffffffffffffffff167f8be0079c531659141344cd1fd0a4f28419497f9722a3daafe3b4186f6b6457e060405160405180910390a35050565b600033905090565b6000604051905090565b600080fd5b600080fd5b600073ffffffffffffffffffffffffffffffffffffffff82169050919050565b6000610f2c82610f01565b9050919050565b610f3c81610f21565b8114610f4757600080fd5b50565b600081359050610f5981610f33565b92915050565b600060208284031215610f7557610f74610ef7565b5b6000610f8384828501610f4a565b91505092915050565b6000819050919050565b610f9f81610f8c565b82525050565b6000602082019050610fba6000830184610f96565b92915050565b60008115159050919050565b610fd581610fc0565b82525050565b6000602082019050610ff06000830184610fcc565b92915050565b600061100182610f21565b9050919050565b61101181610ff6565b811461101c57600080fd5b50565b60008135905061102e81611008565b92915050565b60006020828403121561104a57611049610ef7565b5b60006110588482850161101f565b91505092915050565b61106a81610f8c565b811461107557600080fd5b50565b60008135905061108781611061565b92915050565b6000602082840312156110a3576110a2610ef7565b5b60006110b184828501611078565b91505092915050565b6110c381610f21565b82525050565b60006020820190506110de60008301846110ba565b92915050565b600080fd5b6000601f19601f8301169050919050565b7f4e487b7100000000000000000000000000000000000000000000000000000000600052604160045260246000fd5b611132826110e9565b810181811067ffffffffffffffff82111715611151576111506110fa565b5b80604052505050565b6000611164610eed565b90506111708282611129565b919050565b600067ffffffffffffffff8211156111905761118f6110fa565b5b602082029050602081019050919050565b600080fd5b60006111b96111b484611175565b61115a565b905080838252602082019050602084028301858111156111dc576111db6111a1565b5b835b8181101561120557806111f18882610f4a565b8452602084019350506020810190506111de565b5050509392505050565b600082601f830112611224576112236110e4565b5b81356112348482602086016111a6565b91505092915050565b600067ffffffffffffffff821115611258576112576110fa565b5b602082029050602081019050919050565b600061127c6112778461123d565b61115a565b9050808382526020820190506020840283018581111561129f5761129e6111a1565b5b835b818110156112c857806112b48882611078565b8452602084019350506020810190506112a1565b5050509392505050565b600082601f8301126112e7576112e66110e4565b5b81356112f7848260208601611269565b91505092915050565b6000806040838503121561131757611316610ef7565b5b600083013567ffffffffffffffff81111561133557611334610efc565b5b6113418582860161120f565b925050602083013567ffffffffffffffff81111561136257611361610efc565b5b61136e858286016112d2565b9150509250929050565b600060ff82169050919050565b61138e81611378565b82525050565b60006020820190506113a96000830184611385565b92915050565b6000819050919050565b60006113d46113cf6113ca84610f01565b6113af565b610f01565b9050919050565b60006113e6826113b9565b9050919050565b60006113f8826113db565b9050919050565b611408816113ed565b82525050565b600060208201905061142360008301846113ff565b92915050565b600082825260208201905092915050565b7f4f6e6c79207768656e2056657374696e6720776173206e6f7420696e6974696160008201527f6c697a6564000000000000000000000000000000000000000000000000000000602082015250565b6000611496602583611429565b91506114a18261143a565b604082019050919050565b600060208201905081810360008301526114c581611489565b9050919050565b6000815190506114db81611061565b92915050565b6000602082840312156114f7576114f6610ef7565b5b6000611505848285016114cc565b91505092915050565b7f4e6f7420656e6f7567682062616c616e63650000000000000000000000000000600082015250565b6000611544601283611429565b915061154f8261150e565b602082019050919050565b6000602082019050818103600083015261157381611537565b9050919050565b7f56657374696e67206e6f74207374617274656420796574000000000000000000600082015250565b60006115b0601783611429565b91506115bb8261157a565b602082019050919050565b600060208201905081810360008301526115df816115a3565b9050919050565b7f4e487b7100000000000000000000000000000000000000000000000000000000600052601160045260246000fd5b600061162082610f8c565b91507fffffffffffffffffffffffffffffffffffffffffffffffffffffffffffffffff8203611652576116516115e6565b5b600182019050919050565b600061166882610f8c565b915061167383610f8c565b925082820190508082111561168b5761168a6115e6565b5b92915050565b600061169c82610f8c565b91506116a783610f8c565b92508282026116b581610f8c565b915082820484148315176116cc576116cb6115e6565b5b5092915050565b7f4572726f723a206e65787420636c61696d20696e7374616e6365206e6f74206160008201527f7661696c61626c65207965740000000000000000000000000000000000000000602082015250565b600061172f602c83611429565b915061173a826116d3565b604082019050919050565b6000602082019050818103600083015261175e81611722565b9050919050565b7f416c6c20746f6b656e7320636c61696d65640000000000000000000000000000600082015250565b600061179b601283611429565b91506117a682611765565b602082019050919050565b600060208201905081810360008301526117ca8161178e565b9050919050565b7f4e487b7100000000000000000000000000000000000000000000000000000000600052601260045260246000fd5b600061180b82610f8c565b915061181683610f8c565b925082611826576118256117d1565b5b828204905092915050565b600060408201905061184660008301856110ba565b6118536020830184610f96565b9392505050565b61186381610fc0565b811461186e57600080fd5b50565b6000815190506118808161185a565b92915050565b60006020828403121561189c5761189b610ef7565b5b60006118aa84828501611871565b91505092915050565b60006060820190506118c860008301866110ba565b6118d56020830185610f96565b6118e26040830184610f96565b949350505050565b60006118f582610f8c565b915061190083610f8c565b9250828203905081811115611918576119176115e6565b5b92915050565b7f6c656e676874206e6f206d617463680000000000000000000000000000000000600082015250565b6000611954600f83611429565b915061195f8261191e565b602082019050919050565b6000602082019050818103600083015261198381611947565b9050919050565b7f4e487b7100000000000000000000000000000000000000000000000000000000600052603260045260246000fd5b7f6164647265737320300000000000000000000000000000000000000000000000600082015250565b60006119ef600983611429565b91506119fa826119b9565b602082019050919050565b60006020820190508181036000830152611a1e816119e2565b9050919050565b6000604082019050611a3a6000830185610f96565b611a476020830184610f96565b939250505056fea26469706673582212209b516bbacb013ab282e2566083f718dd3d360c461c8324c581c66009336e273064736f6c63430008180033",
  "linkReferences": {},
  "deployedLinkReferences": {}
}